S010000044435F4D6F746F722E737265631D
S11300000C942A000C943C000C943C000C94630067
S11300100C943C000C943C000C943C000C943C006C
S11300200C943C000C943C000C943C000C943C005C
S11300300C943C000C943C000C943C000C943C004C
S11300400C943C000C943C000C943C000C943C003C
S11300500C943C0011241FBECFE5D8E0DEBFCDBF19
S113006020E0A0E6B0E001C01D92A136B207E1F79E
S11300700E9481000C9498000C9400001ABA87E83E
S113008086B980E487B908958770806487B9369A01
S1130090349BFECF349A8FEC97E00197F1F700C0C0
S11300A0000084B195B108958FEF87BBBA98BB9ACD
S11300B080E28BBF80E484BF78940E943E0012BE2D
S11300C08BE683BF08951F920F920FB60F921124EF
S11300D02F938F939F93809160008095809360000D
S11300E02FE788E391E0215080409040E1F700C081
S11300F000009F918F912F910F900FBE0F901F9032
S113010018950E945400D2E0C1E0809160008823D9
S113011011F0C8BB01C0D8BB80E00E944400992301
S11301200CF4039695958795959587958CBFEDCF9F
S1070130F894FFCF6D
S9030000FC
